:08180000581404000000000070
:1018A0006E10040000000000881104000000000019
:081BF800851F7800861F7800AC
:101C000020002000440AB400900278000000200068
:101C1000440AB40000027800140078000028E100B3
:101C200004003A004552800010C0B300804A78009A
:101C30002300370020002000440AB400800278000E
:101C4000950AE80080002000440AB4009002780061
:101C500040002000440AB400100378004130DD0049
:101C60000503400034528000040398004000200027
:101C7000440AB40080027800950AE8004000200081
:101C8000440AB4009002780000002000440AB40026
:101C900000027800140078000028E10006003A00F5
:101CA00040002000440AB40080027800804AEB0023
:101CB00000C0B3009042980045528000804AEB007B
:101CC0004F037800CF02780000000600851F7800DF
:101CD00000002000700AB400800278009453800055
:101CE00084029800CF02780000000600851F78006B
:101CF0006008F800700AF90020002000700AB400A3
:101D000090027800745380000520E1000500320045
:101D100020002000700AB400901F7800700AF900BB
:101D2000F5FF370020002000700AB4008002780020
:101D3000200020006E0AB400900A78006E2AEF009E
:101D4000CF02780000000600851F7800861F78000B
:101D50006008F800560AF900560AE2003600320020
:101D600000002000560AB4009002780005F0A70099
:101D70002C00370000002000560AB400901F7800A5
:101D80005A0AF90020002000560AB400901F78007B
:101D9000580AF90000002000580AB40090027800A8
:101DA00005F0A7001A003700568ABF005A0AB4008F
:101DB000000378006403430006007800580AE3003B
:101DC00013003A0000002000580AB400901F780069
:101DD0005C0AF900E45280006402420004007800CA
:101DE0005A2AB400580AF8006E0AF900760E02006A
:101DF00000000000560AF800700AF9005A0AF800BC
:101E0000720AF900660E02000000000004003700AC
:101E100020002000560AB400901F7800560AF900EE
:101E20000400370020002000560AB400901F7800FC
:101E3000560AF900C8FF37004F037800CF02780038
:101E400000000600851F7800420AE20002003A0006
:101E50001B00370018003700145280006400520045
:101E600044AAB70000002000440AB40090027800A1
:101E700005F0A6000E00370000002000440AB40060
:101E800090027800040028000480520046AAB7009F
:101E9000440AF800700AF900460AF800720AF900CC
:101EA000660E020000000000422AEF000200370028
:101EB000422AEF0002003700A40E020000000000DA
:101EC000CF02780000000600851F7800680AF8003D
:101ED0006A0AF900000020006A0AB4008002780053
:101EE0003453800084029800200020006A0AB40065
:101EF00080027800804AEB0000C0B3009042980056
:101F00006A0AF8000000F900CF027800000006001D
:101F1000851F7800200020005C0AB4009002780041
:101F20000500E00007003A00200020005E0AB4002F
:101F300080027800804AEB0000C0B3009042980015
:101F400006003700200020005E0AB40080027800FE
:101F5000200020005C0AB400900A780020002000D5
:101F60005C0AB40080027800F45280008402980079
:101F7000CF02780000000600851F7800861F7800D9
:101F80004A8ABF00610060000000E00001003200EA
:101F90004A2AEC006008F8004C0AF9004C0AE200FA
:101FA00041003200000020004C0AB400900278008A
:101FB00005F0A70037003700000020004C0AB400ED
:101FC00010037800545280000620E10031003E00EA
:101FD000000020004C0AB400901F7800500AF9005D
:101FE0005452800064024200040078008452800051
:101FF0000020E1001E003600845280005352800011
:1020000083025200E4825200645280006402420063
:1020100004037800060078004A0AB4000003780040
:102020003553880046538800640F0200000000000A
:102030004EAAB7004C0AF8005C0AF9004E0AF800F4
:102040005E0AF900880F020000000000040028006A
:1020500053528000848241004C0AF800700AF90053
:1020600095538800660E020000000000080037004B
:102070000400280083528000848241004C0AF8004A
:10208000700AF90095538800660E020000000000F7
:1020900005003700200020004C0AB400901F780093
:1020A0004C0AF900BDFF37004C0AE20003003A0079
:1020B0000020EF0006003700050037006452800062
:1020C000640242000400780000A0B700000037005E
:1020D0004F037800CF027800000006004200F800AD
:1020E0003600F8003200F800801F78002000200041
:1020F0000C000900B01F78002202AE00FEFF37007E
:102100003011800038EAB700FA28EC000000EB003C
:10211000F228AF000000E8000160EF000080B2008C
:10212000030032001080B200060032003C0037008D
:10213000C4518000B4C5B20001003A00F228A800E2
:1021400038003700544F80007720E10006003A0045
:10215000C4518000D4C5B20003003200EA29EF0068
:10216000F228A9002D003700C4518000D4C5B20068
:1021700024003A00EA89BF000009B4008002780018
:10218000804AEB00EA29EF00F828EC0024902000B8
:10219000245288000009F800460AF900A4A3200090
:1021A00044528800FC0D020000000000D451800061
:1021B0006120E10006003A000009F800420AF90037
:1021C000220F0200000000002029ED00FE28EC0094
:1021D000F228A9009401200054528800BC0F02008C
:1021E0000000000000A9B7000009E20003003A0067
:1021F0009560A9001E29EC00010037002029EC00A1
:1022000006003700EA89BF000009B40080027800A8
:10221000388ABF0080429800EA29EC0001003700AC
:10222000000037008560A900A00120000C00090013
:102230004F1078004F0078003200F9003600F900A6
:102240004200F90000400600851F7800861F7800D4
:10225000871F7800200020003A0AB400900278001E
:102260000500E00004003A00F551800020C0B300F2
:10227000804A780022003700200020003A0AB4008B
:1022800080027800950AE900E55180008000200076
:102290003A0AB40010037800600020003A0AB40043
:1022A0009003780007004300904A78006000200007
:1022B0003A0AB40080027800950AE8006000200025
:1022C0003A0AB40090027800000020003A0AB400F4
:1022D00000027800140078000028E10006003A00AF
:1022E000600020003A0AB40080027800804AEB00C7
:1022F00000C0B30090429800F5518000804AEB0086
:10230000CF0378004F037800CF027800000006006A
:102310008580A9004200F8003600F8003200F8007D
:10232000801F7800200020000C000900B01F7800FA
:1023300044862000D451880084A32000E451880002
:1023400094A32000F4518800241102000000000032
:10235000394AE20006003A0038CABF002322AF0023
:10236000FEFF370024E2B7002562EF0002003700CD
:102370009580A900F208A800A00120000C00090027
:102380004F1078004F0078003200F9003600F90055
:102390004200F9000040060081E0A900040E200080
:1023A0001402880081E0A80000000600851F780064
:1023B0002CA3EF0005168000B0FE2F008502600000
:1023C000051688004516800030FF2F00850260004A
:1023D00045168800C442A800C482A800CC42A800C8
:1023E000CC62A800CF02780000000600F208A80026
:1023F000F028EF00F428EF00FC28EF00F828EF00A9
:10240000FA28EF00FE28EF001E29EF002029EF0038
:10241000000006004200F80081E0A90042E0EF0061
:1024200081E0A8009401200054528800BC0F0200F3
:102430000000000081E0A9004200F90081E0A8004E
:1024400000A9B7000009E200060032002029EC00D4
:10245000030009002682BF008560A9009560A800DE
:10246000010037001E29EC0000000600851F7800DF
:1024700000002000000AB400800278002450800090
:102480008402980020002000000AB4008002780036
:10249000804AEB0000C0B30090429800400020004A
:1024A000000AB40080027800804AEB0000C0B3004C
:1024B0009042980060002000000AB400800278007A
:1024C000804AEB0000C0B3009042980080002000DA
:1024D000000AB40080027800145080008402980042
:1024E000CF02780000000600851F78000000200061
:1024F000000AB40080027800245080008402980012
:1025000020002000000AB40080027800804AEB001E
:1025100000C0B3009042980040002000000AB400C0
:1025200080027800804AEB0000C0B300904298001F
:1025300060002000000AB40080027800804AEB00AE
:1025400000C0B3009042980080002000000AB40050
:10255000800278001450800084029800CF02780036
:10256000000006002490200004508800C490200041
:102570001450880084002000245088003612020085
:10258000000000004486200004508800E4862000FB
:10259000145088000408200024508800741202009F
:1025A000000000000000060081E0A9004220EF00CA
:1025B00081E0A80000000600851F7800861F7800D3
:1025C000871F780020002000000AB40090027800E5
:1025D0000500E00004003A002550800020C0B30050
:1025E000804A78002500370020002000000AB4004F
:1025F00080027800950AE90000002000020AB40079
:102600008002780080002000000AB40010037800E7
:1026100060002000000AB40090037800C13BDD0098
:1026200007004300900A780060002000000AB40010
:1026300080027800950AE80060002000000AB400DB
:102640009002780000002000000AB4000002780028
:10265000140078000028E10006003A006000200025
:10266000000AB40080027800804AEB0000C0B3008A
:102670009042980025508000804AEB00CF037800FC
:102680004F037800CF02780000000600851F780015
:10269000861F7800080AF8000A0AF9000A8ABF00B3
:1026A000904278008502FB000500E0000200320045
:1026B0000A2AEC00F9FF3700545080004350800094
:1026C000030052004F037800CF027800000006009C
:1026D000145080000443B1000440780000E0B700CB
:1026E00000000600851F780020002000080AB400C2
:1026F00080027800951F78000000F900CF02780072
:1027000000000600851F7800861F7800871F78006C
:10271000200020000A0AB400900278000000200087
:102720000A0AB40000027800140078000028E100D2
:1027300004003A007550800010C0B300804A780051
:1027400022003700200020000A0AB400800278002E
:10275000950AE800800020000A0AB4009002780080
:10276000400020000A0AB40010037800868342006B
:102770000C8ABF0080439800400020000A0AB40081
:1027800080027800950AE800400020000A0AB400A0
:1027900090027800000020000A0AB40000027800CD
:1027A000140078000028E10006003A0040002000F4
:1027B0000A0AB40080027800804AEB0000C0B3002F
:1027C0009042980075508000804AEB00CF0378005B
:1027D0004F037800CF02780000000600851F7800C4
:1027E000066AEF00000AF800080AF9004613020022
:1027F0000000000002EAB700024AE20028003200AE
:10280000448620004450880072130200000000003B
:10281000040820000040520004EAB70002CABF00CA
:102820000160EF00245080000960EF000020E1000B
:102830001B003900036AEF0003CABF001450800078
:102840000024E10011003600145080004822DE0010
:1028500004007800000AB400904278000C0AF800E6
:10286000E5FF9F000C0AF9004486200054508800C0
:1028700054A0200074508800821302000000000061
:10288000066AEC00036AEC00EBFF3700F208AE00CA
:1028900003003700F208A9008580A8009580A800F1
:1028A00006CABF0000E0B700CF02780000000600B3
:1028B0000F782200F07F220020A0B7000000000067
:1028C000404424004005880081E0A8006004200006
:1028D00042E7B7007005200042E7B70042C7A900F1
:1028E000C0F02300A4A6B70000302000CCA6B7009B
:1028F0006004200042E7B7007005200042E7B700FF
:1029000042C7A8004427EF000400280004118800F3
:1029100004402000141188002062A8002402200036
:1029200044118800F228A900EA29EF001A003700B4
:10293000800203002CFFFF0080020700440000001B
:10294000800208005A000000800208005A000000BF
:10295000C09108006200C000F608F400000000000A
:102960000201E8006110E10004003A009101BA00A0
:102970003182BA0006C0BF00000006006210E1000C
:1029800002003A0007C0BF000000060008C0BF00F8
:102990000001EB00000006000600200000002000FF
:1029A0009001880080492100800078000001EB0040
:1029B000B0140200000000000BE0B700B0140200E9
:1029C000000000000AE0B7000500E0001900320036
:1029D00005F0A60007003700B01402000000000058
:1029E0000DE0B700B0140200000000000CE0B700DA
:1029F00005F0A10005E0A6000800370005E0A100F1
:102A00008502E900B0140200000000008043780055
:102A100005800900075B7800E5FF3700B01402006D
:102A200000000000005B78008502E900FBFF3A002F
:102A3000DFFF370044A720000443880084D0210032
:102A4000A4538800762AEF00EE69EF00EF69EF00EB
:102A5000F069EF00F169EF00F269EF00F369EF0050
:102A6000F869EF0064982000A44F880024922000A9
:102A7000B44F8800CC11020000000000D611020003
:102A800000000000F6110200000000000A1202001F
:102A900000000000B212020000000000D412020088
:102AA00000000000CC110200000000002490200073
:102AB00004508800C491200014508800C49E200057
:102AC00024508800DC12020000000000EC49E20003
:102AD000C4003A00F969EF001C09F800080AF9007F
:102AE0004613020000000000C44F80004822DE00B0
:102AF0000024E100A7003100C44F80004822DE001E
:102B0000040078001C09B4001042780084C2B200AE
:102B100003003A0010C0B300EEE9B7009B00370095
:102B2000C44F80004822DE00040078001C09B40075
:102B300010427800C4C2B20032003A00744F8000E4
:102B40006124E1002E003A00744F80004822DE002C
:102B50006124E10002003A00F0C9BF00F3E9B700C8
:102B6000744F80004822DE006224E10007003A0032
:102B7000844F80000960EF006A20B800800278006E
:102B800005007800F149B400F3E9B700744F800004
:102B90004822DE006324E1000C003A00844F8000EC
:102BA0000960EF00430620000320B800800278008F
:102BB000844F80004822DE006A20B8008502400071
:102BC00005007800F249B400F3E9B700F8C9BF0086
:102BD0004100DD000080FB000160EF00B44F800089
:102BE0000400400080027800F3C9BF00804A7800EA
:102BF00000C0B30090429800EF69EF00EE69EF006B
:102C000062003700C44F80004822DE0004007800D4
:102C10001C09B4001042780094C2B2002F003A00A0
:102C2000744F80004822DE006124E10002003A0077
:102C3000F0C9BF00F3E9B700744F80004822DE00FE
:102C40006224E10007003A00844F80000960EF0031
:102C50006A20B8008002780005007800F149B400CD
:102C6000F3E9B700744F80004822DE006324E100DE
:102C70000C003A00844F80000960EF0043062000FA
:102C80000320B80080027800844F80004822DE00D4
:102C90006A20B8008502400005007800F249B400BF
:102CA000F3E9B700F8C9BF004100DD000080FB0078
:102CB0000160EF00A44F8000040040008002780013
:102CC000F3C9BF00804A780000C0B300904298006A
:102CD000EF69EF00F869EC002C003700EF49E200E3
:102CE0000B003A00C44F80004822DE000400780048
:102CF0001C09B40090427800020AF800E5FF9F002A
:102D0000020AF9006813020000000000F0E9B700B1
:102D1000744F80004822DE006124E1000B003A007D
:102D2000C44F80004822DE00040078001C09B40073
:102D300090427800020AF800E5FF9F00020AF900BD
:102D40006813020000000000F1E9B700744F800032
:102D50004822DE006224E1000B003A00C44F8000EC
:102D60004822DE00040078001C09B400904278007C
:102D7000020AF800E5FF9F00020AF900681302004A
:102D800000000000F2E9B700EF69EC00F969EC001F
:102D900051FF37001C09F800000AF900EE13020089
:102DA00000000000EDE9B7004200F80081E0A90052
:102DB00042E0EF0081E0A8001C09F800420AF90097
:102DC000220F02000000000081E0A9004200F9008B
:102DD00081E0A8002029ED00D412020000000000CC
:102DE00002003700D4120200000000002DFF37005F
:042DF000FFFF3700AA
:020000040001F9
:0807F800C7F900FF7F3700FF85
:00000001FF
;PIC24FJ48GA002
;CRC=A365  CREATED="20-Nov-17 00:36"
